{
  "_format": "hh-sol-artifact-1",
  "contractName": "Subscription",
  "sourceName": "contracts/Subscription.sol",
  "abi": [
    {
      "inputs": [
        {
          "internalType": "address",
          "name": "_tokenAddress",
          "type": "address"
        }
      ],
      "stateMutability": "nonpayable",
      "type": "constructor"
    },
    {
      "inputs": [
        {
          "internalType": "uint256",
          "name": "_amount",
          "type": "uint256"
        },
        {
          "internalType": "uint256",
          "name": "_frequency",
          "type": "uint256"
        }
      ],
      "name": "createPlan",
      "outputs": [],
      "stateMutability": "nonpayable",
      "type": "function"
    },
    {
      "inputs": [
        {
          "internalType": "address",
          "name": "_subscriber",
          "type": "address"
        },
        {
          "internalType": "uint256",
          "name": "_planId",
          "type": "uint256"
        }
      ],
      "name": "executePayment",
      "outputs": [],
      "stateMutability": "nonpayable",
      "type": "function"
    },
    {
      "inputs": [],
      "name": "paymentToken",
      "outputs": [
        {
          "internalType": "contract IERC20",
          "name": "",
          "type": "address"
        }
      ],
      "stateMutability": "view",
      "type": "function"
    },
    {
      "inputs": [],
      "name": "planCount",
      "outputs": [
        {
          "internalType": "uint256",
          "name": "",
          "type": "uint256"
        }
      ],
      "stateMutability": "view",
      "type": "function"
    },
    {
      "inputs": [
        {
          "internalType": "uint256",
          "name": "",
          "type": "uint256"
        }
      ],
      "name": "plans",
      "outputs": [
        {
          "internalType": "address",
          "name": "merchant",
          "type": "address"
        },
        {
          "internalType": "uint256",
          "name": "amount",
          "type": "uint256"
        },
        {
          "internalType": "uint256",
          "name": "frequency",
          "type": "uint256"
        }
      ],
      "stateMutability": "view",
      "type": "function"
    },
    {
      "inputs": [
        {
          "internalType": "uint256",
          "name": "_planId",
          "type": "uint256"
        }
      ],
      "name": "subscribe",
      "outputs": [],
      "stateMutability": "nonpayable",
      "type": "function"
    },
    {
      "inputs": [
        {
          "internalType": "address",
          "name": "",
          "type": "address"
        },
        {
          "internalType": "uint256",
          "name": "",
          "type": "uint256"
        }
      ],
      "name": "userSubs",
      "outputs": [
        {
          "internalType": "uint256",
          "name": "lastPayment",
          "type": "uint256"
        },
        {
          "internalType": "bool",
          "name": "isActive",
          "type": "bool"
        }
      ],
      "stateMutability": "view",
      "type": "function"
    }
  ],
  "bytecode": "0x608060405234801561001057600080fd5b50604051610d83380380610d83833981810160405281019061003291906100db565b806000806101000a81548173ffffffffffffffffffffffffffffffffffffffff021916908373ffffffffffffffffffffffffffffffffffffffff16021790555050610108565b600080fd5b600073ffffffffffffffffffffffffffffffffffffffff82169050919050565b60006100a88261007d565b9050919050565b6100b88161009d565b81146100c357600080fd5b50565b6000815190506100d5816100af565b92915050565b6000602082840312156100f1576100f0610078565b5b60006100ff848285016100c6565b91505092915050565b610c6c806101176000396000f3fe608060405234801561001057600080fd5b506004361061007d5760003560e01c80635e752c711161005b5780635e752c71146100da578063b16206161461010b578063b197df541461013d578063ef0bba2c146101595761007d565b80630f574ba7146100825780633013ce291461009e578063382d39bb146100bc575b600080fd5b61009c60048036038101906100979190610701565b610175565b005b6100a661032c565b6040516100b391906107ad565b60405180910390f35b6100c4610350565b6040516100d191906107d7565b60405180910390f35b6100f460048036038101906100ef9190610830565b610356565b60405161010292919061088b565b60405180910390f35b61012560048036038101906101209190610701565b610394565b604051610134939291906108c3565b60405180910390f35b610157600480360381019061015291906108fa565b6103de565b005b610173600480360381019061016e9190610830565b61049e565b005b600060016000838152602001908152602001600020905060008054906101000a900473ffffffffffffffffffffffffffffffffffffffff1673ffffffffffffffffffffffffffffffffffffffff166323b872dd338360000160009054906101000a900473ffffffffffffffffffffffffffffffffffffffff1684600101546040518463ffffffff1660e01b81526004016102119392919061093a565b6020604051808303816000875af1158015610230573d6000803e3d6000fd5b505050506040513d601f19601f82011682018060405250810190610254919061099d565b610293576040517f08c379a000000000000000000000000000000000000000000000000000000000815260040161028a90610a27565b60405180910390fd5b604051806040016040528042815260200160011515815250600260003373ffffffffffffffffffffffffffffffffffffffff1673ffffffffffffffffffffffffffffffffffffffff16815260200190815260200160002060008481526020019081526020016000206000820151816000015560208201518160010160006101000a81548160ff0219169083151502179055509050505050565b60008054906101000a900473ffffffffffffffffffffffffffffffffffffffff1681565b60035481565b6002602052816000526040600020602052806000526040600020600091509150508060000154908060010160009054906101000a900460ff16905082565b60016020528060005260406000206000915090508060000160009054906101000a900473ffffffffffffffffffffffffffffffffffffffff16908060010154908060020154905083565b60405180606001604052803373ffffffffffffffffffffffffffffffffffffffff1681526020018381526020018281525060016000600354815260200190815260200160002060008201518160000160006101000a81548173ffffffffffffffffffffffffffffffffffffffff021916908373ffffffffffffffffffffffffffffffffffffffff16021790555060208201518160010155604082015181600201559050506003600081548092919061049590610a76565b91905055505050565b60006001600083815260200190815260200160002090506000600260008573ffffffffffffffffffffffffffffffffffffffff1673ffffffffffffffffffffffffffffffffffffffff168152602001908152602001600020600084815260200190815260200160002090508060010160009054906101000a900460ff1661055a576040517f08c379a000000000000000000000000000000000000000000000000000000000815260040161055190610b0a565b60405180910390fd5b8160020154816000015461056e9190610b2a565b4210156105b0576040517f08c379a00000000000000000000000000000000000000000000000000000000081526004016105a790610baa565b60405180910390fd5b42816000018190555060008054906101000a900473ffffffffffffffffffffffffffffffffffffffff1673ffffffffffffffffffffffffffffffffffffffff166323b872dd858460000160009054906101000a900473ffffffffffffffffffffffffffffffffffffffff1685600101546040518463ffffffff1660e01b815260040161063e9392919061093a565b6020604051808303816000875af115801561065d573d6000803e3d6000fd5b505050506040513d601f19601f82011682018060405250810190610681919061099d565b6106c0576040517f08c379a00000000000000000000000000000000000000000000000000000000081526004016106b790610c16565b60405180910390fd5b50505050565b600080fd5b6000819050919050565b6106de816106cb565b81146106e957600080fd5b50565b6000813590506106fb816106d5565b92915050565b600060208284031215610717576107166106c6565b5b6000610725848285016106ec565b91505092915050565b600073ffffffffffffffffffffffffffffffffffffffff82169050919050565b6000819050919050565b600061077361076e6107698461072e565b61074e565b61072e565b9050919050565b600061078582610758565b9050919050565b60006107978261077a565b9050919050565b6107a78161078c565b82525050565b60006020820190506107c2600083018461079e565b92915050565b6107d1816106cb565b82525050565b60006020820190506107ec60008301846107c8565b92915050565b60006107fd8261072e565b9050919050565b61080d816107f2565b811461081857600080fd5b50565b60008135905061082a81610804565b92915050565b60008060408385031215610847576108466106c6565b5b60006108558582860161081b565b9250506020610866858286016106ec565b9150509250929050565b60008115159050919050565b61088581610870565b82525050565b60006040820190506108a060008301856107c8565b6108ad602083018461087c565b9392505050565b6108bd816107f2565b82525050565b60006060820190506108d860008301866108b4565b6108e560208301856107c8565b6108f260408301846107c8565b949350505050565b60008060408385031215610911576109106106c6565b5b600061091f858286016106ec565b9250506020610930858286016106ec565b9150509250929050565b600060608201905061094f60008301866108b4565b61095c60208301856108b4565b61096960408301846107c8565b949350505050565b61097a81610870565b811461098557600080fd5b50565b60008151905061099781610971565b92915050565b6000602082840312156109b3576109b26106c6565b5b60006109c184828501610988565b91505092915050565b600082825260208201905092915050565b7f4c6f693a204b686f6e67207472752064756f63207469656e0000000000000000600082015250565b6000610a116018836109ca565b9150610a1c826109db565b602082019050919050565b60006020820190508181036000830152610a4081610a04565b9050919050565b7f4e487b7100000000000000000000000000000000000000000000000000000000600052601160045260246000fd5b6000610a81826106cb565b91507fffffffffffffffffffffffffffffffffffffffffffffffffffffffffffffffff8203610ab357610ab2610a47565b5b600182019050919050565b7f476f6920636875612064756f632064616e67206b790000000000000000000000600082015250565b6000610af46015836109ca565b9150610aff82610abe565b602082019050919050565b60006020820190508181036000830152610b2381610ae7565b9050919050565b6000610b35826106cb565b9150610b40836106cb565b9250828201905080821115610b5857610b57610a47565b5b92915050565b7f436875612064656e2068616e207468616e6820746f616e000000000000000000600082015250565b6000610b946017836109ca565b9150610b9f82610b5e565b602082019050919050565b60006020820190508181036000830152610bc381610b87565b9050919050565b7f4c6f693a205669206e67756f692064756e67206b686f6e67206475207469656e600082015250565b6000610c006020836109ca565b9150610c0b82610bca565b602082019050919050565b60006020820190508181036000830152610c2f81610bf3565b905091905056fea2646970667358221220cb7471c9418d989b7abf0a3158c10a58a015bc18db2464434377251cb5678c5a64736f6c63430008140033",
  "linkReferences": {},
  "deployedLinkReferences": {}
}