{
  "_format": "hh-sol-artifact-1",
  "contractName": "Subscription",
  "sourceName": "contracts/Subscription.sol",
  "abi": [
    {
      "inputs": [
        {
          "internalType": "address",
          "name": "_tokenAddress",
          "type": "address"
        }
      ],
      "stateMutability": "nonpayable",
      "type": "constructor"
    },
    {
      "anonymous": false,
      "inputs": [
        {
          "indexed": true,
          "internalType": "uint256",
          "name": "id",
          "type": "uint256"
        }
      ],
      "name": "PackageApproved",
      "type": "event"
    },
    {
      "anonymous": false,
      "inputs": [
        {
          "indexed": true,
          "internalType": "uint256",
          "name": "id",
          "type": "uint256"
        },
        {
          "indexed": false,
          "internalType": "string",
          "name": "name",
          "type": "string"
        },
        {
          "indexed": false,
          "internalType": "uint256",
          "name": "price",
          "type": "uint256"
        },
        {
          "indexed": true,
          "internalType": "address",
          "name": "seller",
          "type": "address"
        }
      ],
      "name": "PackageCreated",
      "type": "event"
    },
    {
      "anonymous": false,
      "inputs": [
        {
          "indexed": true,
          "internalType": "address",
          "name": "buyer",
          "type": "address"
        },
        {
          "indexed": true,
          "internalType": "uint256",
          "name": "packageId",
          "type": "uint256"
        },
        {
          "indexed": true,
          "internalType": "address",
          "name": "seller",
          "type": "address"
        }
      ],
      "name": "Subscribed",
      "type": "event"
    },
    {
      "inputs": [],
      "name": "admin",
      "outputs": [
        {
          "internalType": "address",
          "name": "",
          "type": "address"
        }
      ],
      "stateMutability": "view",
      "type": "function"
    },
    {
      "inputs": [
        {
          "internalType": "uint256",
          "name": "_packageId",
          "type": "uint256"
        }
      ],
      "name": "approvePackage",
      "outputs": [],
      "stateMutability": "nonpayable",
      "type": "function"
    },
    {
      "inputs": [
        {
          "internalType": "string",
          "name": "_name",
          "type": "string"
        },
        {
          "internalType": "uint256",
          "name": "_price",
          "type": "uint256"
        }
      ],
      "name": "createPackage",
      "outputs": [],
      "stateMutability": "nonpayable",
      "type": "function"
    },
    {
      "inputs": [
        {
          "internalType": "address",
          "name": "",
          "type": "address"
        },
        {
          "internalType": "uint256",
          "name": "",
          "type": "uint256"
        }
      ],
      "name": "expiry",
      "outputs": [
        {
          "internalType": "uint256",
          "name": "",
          "type": "uint256"
        }
      ],
      "stateMutability": "view",
      "type": "function"
    },
    {
      "inputs": [],
      "name": "getActivePackages",
      "outputs": [
        {
          "components": [
            {
              "internalType": "uint256",
              "name": "id",
              "type": "uint256"
            },
            {
              "internalType": "string",
              "name": "name",
              "type": "string"
            },
            {
              "internalType": "uint256",
              "name": "price",
              "type": "uint256"
            },
            {
              "internalType": "address payable",
              "name": "seller",
              "type": "address"
            },
            {
              "internalType": "enum Subscription.PackageStatus",
              "name": "status",
              "type": "uint8"
            }
          ],
          "internalType": "struct Subscription.Package[]",
          "name": "",
          "type": "tuple[]"
        }
      ],
      "stateMutability": "view",
      "type": "function"
    },
    {
      "inputs": [],
      "name": "getAllPackages",
      "outputs": [
        {
          "components": [
            {
              "internalType": "uint256",
              "name": "id",
              "type": "uint256"
            },
            {
              "internalType": "string",
              "name": "name",
              "type": "string"
            },
            {
              "internalType": "uint256",
              "name": "price",
              "type": "uint256"
            },
            {
              "internalType": "address payable",
              "name": "seller",
              "type": "address"
            },
            {
              "internalType": "enum Subscription.PackageStatus",
              "name": "status",
              "type": "uint8"
            }
          ],
          "internalType": "struct Subscription.Package[]",
          "name": "",
          "type": "tuple[]"
        }
      ],
      "stateMutability": "view",
      "type": "function"
    },
    {
      "inputs": [],
      "name": "getMyPackages",
      "outputs": [
        {
          "internalType": "uint256[]",
          "name": "",
          "type": "uint256[]"
        }
      ],
      "stateMutability": "view",
      "type": "function"
    },
    {
      "inputs": [],
      "name": "getPendingPackages",
      "outputs": [
        {
          "components": [
            {
              "internalType": "uint256",
              "name": "id",
              "type": "uint256"
            },
            {
              "internalType": "string",
              "name": "name",
              "type": "string"
            },
            {
              "internalType": "uint256",
              "name": "price",
              "type": "uint256"
            },
            {
              "internalType": "address payable",
              "name": "seller",
              "type": "address"
            },
            {
              "internalType": "enum Subscription.PackageStatus",
              "name": "status",
              "type": "uint8"
            }
          ],
          "internalType": "struct Subscription.Package[]",
          "name": "",
          "type": "tuple[]"
        }
      ],
      "stateMutability": "view",
      "type": "function"
    },
    {
      "inputs": [
        {
          "internalType": "address",
          "name": "",
          "type": "address"
        },
        {
          "internalType": "uint256",
          "name": "",
          "type": "uint256"
        }
      ],
      "name": "hasAccess",
      "outputs": [
        {
          "internalType": "bool",
          "name": "",
          "type": "bool"
        }
      ],
      "stateMutability": "view",
      "type": "function"
    },
    {
      "inputs": [
        {
          "internalType": "address",
          "name": "",
          "type": "address"
        },
        {
          "internalType": "uint256",
          "name": "",
          "type": "uint256"
        }
      ],
      "name": "hasSubscribedHistory",
      "outputs": [
        {
          "internalType": "bool",
          "name": "",
          "type": "bool"
        }
      ],
      "stateMutability": "view",
      "type": "function"
    },
    {
      "inputs": [],
      "name": "packageCount",
      "outputs": [
        {
          "internalType": "uint256",
          "name": "",
          "type": "uint256"
        }
      ],
      "stateMutability": "view",
      "type": "function"
    },
    {
      "inputs": [
        {
          "internalType": "uint256",
          "name": "",
          "type": "uint256"
        }
      ],
      "name": "packages",
      "outputs": [
        {
          "internalType": "uint256",
          "name": "id",
          "type": "uint256"
        },
        {
          "internalType": "string",
          "name": "name",
          "type": "string"
        },
        {
          "internalType": "uint256",
          "name": "price",
          "type": "uint256"
        },
        {
          "internalType": "address payable",
          "name": "seller",
          "type": "address"
        },
        {
          "internalType": "enum Subscription.PackageStatus",
          "name": "status",
          "type": "uint8"
        }
      ],
      "stateMutability": "view",
      "type": "function"
    },
    {
      "inputs": [
        {
          "internalType": "uint256",
          "name": "_packageId",
          "type": "uint256"
        }
      ],
      "name": "subscribeToPackage",
      "outputs": [],
      "stateMutability": "nonpayable",
      "type": "function"
    },
    {
      "inputs": [],
      "name": "token",
      "outputs": [
        {
          "internalType": "contract IERC20",
          "name": "",
          "type": "address"
        }
      ],
      "stateMutability": "view",
      "type": "function"
    },
    {
      "inputs": [
        {
          "internalType": "address",
          "name": "",
          "type": "address"
        },
        {
          "internalType": "uint256",
          "name": "",
          "type": "uint256"
        }
      ],
      "name": "userSubscriptions",
      "outputs": [
        {
          "internalType": "uint256",
          "name": "",
          "type": "uint256"
        }
      ],
      "stateMutability": "view",
      "type": "function"
    }
  ],
  "bytecode": "0x60806040523480156200001157600080fd5b506040516200279538038062002795833981810160405281019062000037919062000129565b806000806101000a81548173ffffffffffffffffffffffffffffffffffffffff021916908373ffffffffffffffffffffffffffffffffffffffff16021790555033600160006101000a81548173ffffffffffffffffffffffffffffffffffffffff021916908373ffffffffffffffffffffffffffffffffffffffff160217905550506200015b565b600080fd5b600073ffffffffffffffffffffffffffffffffffffffff82169050919050565b6000620000f182620000c4565b9050919050565b6200010381620000e4565b81146200010f57600080fd5b50565b6000815190506200012381620000f8565b92915050565b600060208284031215620001425762000141620000bf565b5b6000620001528482850162000112565b91505092915050565b61262a806200016b6000396000f3fe608060405234801561001057600080fd5b50600436106100f55760003560e01c8063bd3078bd11610097578063db3364ff11610066578063db3364ff1461029e578063ee0ebe0c146102ba578063f851a440146102d8578063fc0c546a146102f6576100f5565b8063bd3078bd146101ee578063c216212a1461020a578063c6530e411461023e578063c95d6edc1461026e576100f5565b8063334b3de6116100d3578063334b3de6146101545780637a2a3b5e1461017057806385bedb641461018e57806391225027146101be576100f5565b806304b321f1146100fa5780630a421f0f14610118578063222a53e314610136575b600080fd5b610102610314565b60405161010f91906118bc565b60405180910390f35b610120610680565b60405161012d91906118bc565b60405180910390f35b61013e610886565b60405161014b919061198d565b60405180910390f35b61016e600480360381019061016991906119ef565b61091b565b005b610178610afd565b60405161018591906118bc565b60405180910390f35b6101a860048036038101906101a39190611a5a565b610dd9565b6040516101b59190611aa9565b60405180910390f35b6101d860048036038101906101d39190611a5a565b610dfe565b6040516101e59190611adf565b60405180910390f35b610208600480360381019061020391906119ef565b610e2d565b005b610224600480360381019061021f91906119ef565b611274565b604051610235959493929190611b62565b60405180910390f35b61025860048036038101906102539190611a5a565b61135f565b6040516102659190611adf565b60405180910390f35b61028860048036038101906102839190611a5a565b61138e565b6040516102959190611aa9565b60405180910390f35b6102b860048036038101906102b39190611cf1565b6113bf565b005b6102c261157c565b6040516102cf9190611aa9565b60405180910390f35b6102e0611582565b6040516102ed9190611d5c565b60405180910390f35b6102fe6115a8565b60405161030b9190611dd6565b60405180910390f35b6060600160009054906101000a900473ffffffffffffffffffffffffffffffffffffffff1673ffffffffffffffffffffffffffffffffffffffff163373ffffffffffffffffffffffffffffffffffffffff16146103a6576040517f08c379a000000000000000000000000000000000000000000000000000000000815260040161039d90611e3d565b60405180910390fd5b600080600190505b600354811161042857600060028111156103cb576103ca611739565b5b6002600083815260200190815260200160002060030160149054906101000a900460ff16600281111561040157610400611739565b5b0361041557818061041190611e8c565b9250505b808061042090611e8c565b9150506103ae565b5060008167ffffffffffffffff81111561044557610444611bc6565b5b60405190808252806020026020018201604052801561047e57816020015b61046b6115cc565b8152602001906001900390816104635790505b509050600080600190505b600354811161067657600060028111156104a6576104a5611739565b5b6002600083815260200190815260200160002060030160149054906101000a900460ff1660028111156104dc576104db611739565b5b0361066357600260008281526020019081526020016000206040518060a00160405290816000820154815260200160018201805461051990611f03565b80601f016020809104026020016040519081016040528092919081815260200182805461054590611f03565b80156105925780601f1061056757610100808354040283529160200191610592565b820191906000526020600020905b81548152906001019060200180831161057557829003601f168201915b50505050508152602001600282015481526020016003820160009054906101000a900473ffffffffffffffffffffffffffffffffffffffff1673ffffffffffffffffffffffffffffffffffffffff1673ffffffffffffffffffffffffffffffffffffffff1681526020016003820160149054906101000a900460ff1660028111156106205761061f611739565b5b600281111561063257610631611739565b5b8152505083838151811061064957610648611f34565b5b6020026020010181905250818061065f90611e8c565b9250505b808061066e90611e8c565b915050610489565b5081935050505090565b6060600060035467ffffffffffffffff8111156106a05761069f611bc6565b5b6040519080825280602002602001820160405280156106d957816020015b6106c66115cc565b8152602001906001900390816106be5790505b5090506000600190505b600354811161087e57600260008281526020019081526020016000206040518060a00160405290816000820154815260200160018201805461072490611f03565b80601f016020809104026020016040519081016040528092919081815260200182805461075090611f03565b801561079d5780601f106107725761010080835404028352916020019161079d565b820191906000526020600020905b81548152906001019060200180831161078057829003601f168201915b50505050508152602001600282015481526020016003820160009054906101000a900473ffffffffffffffffffffffffffffffffffffffff1673ffffffffffffffffffffffffffffffffffffffff1673ffffffffffffffffffffffffffffffffffffffff1681526020016003820160149054906101000a900460ff16600281111561082b5761082a611739565b5b600281111561083d5761083c611739565b5b815250508260018361084f9190611f63565b815181106108605761085f611f34565b5b6020026020010181905250808061087690611e8c565b9150506106e3565b508091505090565b6060600560003373ffffffffffffffffffffffffffffffffffffffff1673ffffffffffffffffffffffffffffffffffffffff16815260200190815260200160002080548060200260200160405190810160405280929190818152602001828054801561091157602002820191906000526020600020905b8154815260200190600101908083116108fd575b5050505050905090565b600160009054906101000a900473ffffffffffffffffffffffffffffffffffffffff1673ffffffffffffffffffffffffffffffffffffffff163373ffffffffffffffffffffffffffffffffffffffff16146109ab576040517f08c379a00000000000000000000000000000000000000000000000000000000081526004016109a290611e3d565b60405180910390fd5b6000600260008381526020019081526020016000206000015411610a04576040517f08c379a00000000000000000000000000000000000000000000000000000000081526004016109fb90611fe3565b60405180910390fd5b60006002811115610a1857610a17611739565b5b6002600083815260200190815260200160002060030160149054906101000a900460ff166002811115610a4e57610a4d611739565b5b14610a8e576040517f08c379a0000000000000000000000000000000000000000000000000000000008152600401610a8590612075565b60405180910390fd5b60016002600083815260200190815260200160002060030160146101000a81548160ff02191690836002811115610ac857610ac7611739565b5b0217905550807fda794dbff2d130a7b36d35c7c6dd1f6e6dd7bc732379dcaa394825fac2f1423260405160405180910390a250565b6060600080600190505b6003548111610b815760016002811115610b2457610b23611739565b5b6002600083815260200190815260200160002060030160149054906101000a900460ff166002811115610b5a57610b59611739565b5b03610b6e578180610b6a90611e8c565b9250505b8080610b7990611e8c565b915050610b07565b5060008167ffffffffffffffff811115610b9e57610b9d611bc6565b5b604051908082528060200260200182016040528015610bd757816020015b610bc46115cc565b815260200190600190039081610bbc5790505b509050600080600190505b6003548111610dcf5760016002811115610bff57610bfe611739565b5b6002600083815260200190815260200160002060030160149054906101000a900460ff166002811115610c3557610c34611739565b5b03610dbc57600260008281526020019081526020016000206040518060a001604052908160008201548152602001600182018054610c7290611f03565b80601f0160208091040260200160405190810160405280929190818152602001828054610c9e90611f03565b8015610ceb5780601f10610cc057610100808354040283529160200191610ceb565b820191906000526020600020905b815481529060010190602001808311610cce57829003601f168201915b50505050508152602001600282015481526020016003820160009054906101000a900473ffffffffffffffffffffffffffffffffffffffff1673ffffffffffffffffffffffffffffffffffffffff1673ffffffffffffffffffffffffffffffffffffffff1681526020016003820160149054906101000a900460ff166002811115610d7957610d78611739565b5b6002811115610d8b57610d8a611739565b5b81525050838381518110610da257610da1611f34565b5b60200260200101819052508180610db890611e8c565b9250505b8080610dc790611e8c565b915050610be2565b5081935050505090565b6007602052816000526040600020602052806000526040600020600091509150505481565b60066020528160005260406000206020528060005260406000206000915091509054906101000a900460ff1681565b600060026000838152602001908152602001600020905060016002811115610e5857610e57611739565b5b8160030160149054906101000a900460ff166002811115610e7c57610e7b611739565b5b14610ebc576040517f08c379a0000000000000000000000000000000000000000000000000000000008152600401610eb3906120e1565b60405180910390fd5b600760003373ffffffffffffffffffffffffffffffffffffffff1673ffffffffffffffffffffffffffffffffffffffff1681526020019081526020016000206000838152602001908152602001600020544211610f4e576040517f08c379a0000000000000000000000000000000000000000000000000000000008152600401610f4590612173565b60405180910390fd5b60008060009054906101000a900473ffffffffffffffffffffffffffffffffffffffff1673ffffffffffffffffffffffffffffffffffffffff166323b872dd338460030160009054906101000a900473ffffffffffffffffffffffffffffffffffffffff1685600201546040518463ffffffff1660e01b8152600401610fd6939291906121b4565b6020604051808303816000875af1158015610ff5573d6000803e3d6000fd5b505050506040513d601f19601f820116820180604052508101906110199190612217565b90508061105b576040517f08c379a000000000000000000000000000000000000000000000000000000000815260040161105290612290565b60405180910390fd5b600660003373ffffffffffffffffffffffffffffffffffffffff1673ffffffffffffffffffffffffffffffffffffffff168152602001908152602001600020600084815260200190815260200160002060009054906101000a900460ff1661118d57600560003373ffffffffffffffffffffffffffffffffffffffff1673ffffffffffffffffffffffffffffffffffffffff1681526020019081526020016000208390806001815401808255809150506001900390600052602060002001600090919091909150556001600660003373ffffffffffffffffffffffffffffffffffffffff1673ffffffffffffffffffffffffffffffffffffffff168152602001908152602001600020600085815260200190815260200160002060006101000a81548160ff0219169083151502179055505b62278d004261119c91906122b0565b600760003373ffffffffffffffffffffffffffffffffffffffff1673ffffffffffffffffffffffffffffffffffffffff1681526020019081526020016000206000858152602001908152602001600020819055508160030160009054906101000a900473ffffffffffffffffffffffffffffffffffffffff1673ffffffffffffffffffffffffffffffffffffffff16833373ffffffffffffffffffffffffffffffffffffffff167ffcd4b73f16a9e7d08085b173590f3eb58682b7c1d92386da34899dd3a2e2bbaf60405160405180910390a4505050565b600260205280600052604060002060009150905080600001549080600101805461129d90611f03565b80601f01602080910402602001604051908101604052809291908181526020018280546112c990611f03565b80156113165780601f106112eb57610100808354040283529160200191611316565b820191906000526020600020905b8154815290600101906020018083116112f957829003601f168201915b5050505050908060020154908060030160009054906101000a900473ffffffffffffffffffffffffffffffffffffffff16908060030160149054906101000a900460ff16905085565b60046020528160005260406000206020528060005260406000206000915091509054906101000a900460ff1681565b600560205281600052604060002081815481106113aa57600080fd5b90600052602060002001600091509150505481565b60008111611402576040517f08c379a00000000000000000000000000000000000000000000000000000000081526004016113f990612330565b60405180910390fd5b6003600081548092919061141590611e8c565b91905055506040518060a0016040528060035481526020018381526020018281526020013373ffffffffffffffffffffffffffffffffffffffff1681526020016000600281111561146957611468611739565b5b8152506002600060035481526020019081526020016000206000820151816000015560208201518160010190816114a091906124f2565b506040820151816002015560608201518160030160006101000a81548173ffffffffffffffffffffffffffffffffffffffff021916908373ffffffffffffffffffffffffffffffffffffffff16021790555060808201518160030160146101000a81548160ff0219169083600281111561151d5761151c611739565b5b02179055509050503373ffffffffffffffffffffffffffffffffffffffff166003547fc952ffd27909ed7713eaa3d7255563424d4e89ac7981571f4986a8d2b8e4711284846040516115709291906125c4565b60405180910390a35050565b60035481565b600160009054906101000a900473ffffffffffffffffffffffffffffffffffffffff1681565b60008054906101000a900473ffffffffffffffffffffffffffffffffffffffff1681565b6040518060a00160405280600081526020016060815260200160008152602001600073ffffffffffffffffffffffffffffffffffffffff1681526020016000600281111561161d5761161c611739565b5b81525090565b600081519050919050565b600082825260208201905092915050565b6000819050602082019050919050565b6000819050919050565b6116628161164f565b82525050565b600081519050919050565b600082825260208201905092915050565b60005b838110156116a2578082015181840152602081019050611687565b60008484015250505050565b6000601f19601f8301169050919050565b60006116ca82611668565b6116d48185611673565b93506116e4818560208601611684565b6116ed816116ae565b840191505092915050565b600073ffffffffffffffffffffffffffffffffffffffff82169050919050565b6000611723826116f8565b9050919050565b61173381611718565b82525050565b7f4e487b7100000000000000000000000000000000000000000000000000000000600052602160045260246000fd5b6003811061177957611778611739565b5b50565b600081905061178a82611768565b919050565b600061179a8261177c565b9050919050565b6117aa8161178f565b82525050565b600060a0830160008301516117c86000860182611659565b50602083015184820360208601526117e082826116bf565b91505060408301516117f56040860182611659565b506060830151611808606086018261172a565b50608083015161181b60808601826117a1565b508091505092915050565b600061183283836117b0565b905092915050565b6000602082019050919050565b600061185282611623565b61185c818561162e565b93508360208202850161186e8561163f565b8060005b858110156118aa578484038952815161188b8582611826565b94506118968361183a565b925060208a01995050600181019050611872565b50829750879550505050505092915050565b600060208201905081810360008301526118d68184611847565b905092915050565b600081519050919050565b600082825260208201905092915050565b6000819050602082019050919050565b60006119168383611659565b60208301905092915050565b6000602082019050919050565b600061193a826118de565b61194481856118e9565b935061194f836118fa565b8060005b83811015611980578151611967888261190a565b975061197283611922565b925050600181019050611953565b5085935050505092915050565b600060208201905081810360008301526119a7818461192f565b905092915050565b6000604051905090565b600080fd5b600080fd5b6119cc8161164f565b81146119d757600080fd5b50565b6000813590506119e9816119c3565b92915050565b600060208284031215611a0557611a046119b9565b5b6000611a13848285016119da565b91505092915050565b6000611a27826116f8565b9050919050565b611a3781611a1c565b8114611a4257600080fd5b50565b600081359050611a5481611a2e565b92915050565b60008060408385031215611a7157611a706119b9565b5b6000611a7f85828601611a45565b9250506020611a90858286016119da565b9150509250929050565b611aa38161164f565b82525050565b6000602082019050611abe6000830184611a9a565b92915050565b60008115159050919050565b611ad981611ac4565b82525050565b6000602082019050611af46000830184611ad0565b92915050565b600082825260208201905092915050565b6000611b1682611668565b611b208185611afa565b9350611b30818560208601611684565b611b39816116ae565b840191505092915050565b611b4d81611718565b82525050565b611b5c8161178f565b82525050565b600060a082019050611b776000830188611a9a565b8181036020830152611b898187611b0b565b9050611b986040830186611a9a565b611ba56060830185611b44565b611bb26080830184611b53565b9695505050505050565b600080fd5b600080fd5b7f4e487b7100000000000000000000000000000000000000000000000000000000600052604160045260246000fd5b611bfe826116ae565b810181811067ffffffffffffffff82111715611c1d57611c1c611bc6565b5b80604052505050565b6000611c306119af565b9050611c3c8282611bf5565b919050565b600067ffffffffffffffff821115611c5c57611c5b611bc6565b5b611c65826116ae565b9050602081019050919050565b82818337600083830152505050565b6000611c94611c8f84611c41565b611c26565b905082815260208101848484011115611cb057611caf611bc1565b5b611cbb848285611c72565b509392505050565b600082601f830112611cd857611cd7611bbc565b5b8135611ce8848260208601611c81565b91505092915050565b60008060408385031215611d0857611d076119b9565b5b600083013567ffffffffffffffff811115611d2657611d256119be565b5b611d3285828601611cc3565b9250506020611d43858286016119da565b9150509250929050565b611d5681611a1c565b82525050565b6000602082019050611d716000830184611d4d565b92915050565b6000819050919050565b6000611d9c611d97611d92846116f8565b611d77565b6116f8565b9050919050565b6000611dae82611d81565b9050919050565b6000611dc082611da3565b9050919050565b611dd081611db5565b82525050565b6000602082019050611deb6000830184611dc7565b92915050565b7f4368692041646d696e206d6f6920636f20717579656e00000000000000000000600082015250565b6000611e27601683611afa565b9150611e3282611df1565b602082019050919050565b60006020820190508181036000830152611e5681611e1a565b9050919050565b7f4e487b7100000000000000000000000000000000000000000000000000000000600052601160045260246000fd5b6000611e978261164f565b91507fffffffffffffffffffffffffffffffffffffffffffffffffffffffffffffffff8203611ec957611ec8611e5d565b5b600182019050919050565b7f4e487b7100000000000000000000000000000000000000000000000000000000600052602260045260246000fd5b60006002820490506001821680611f1b57607f821691505b602082108103611f2e57611f2d611ed4565b5b50919050565b7f4e487b7100000000000000000000000000000000000000000000000000000000600052603260045260246000fd5b6000611f6e8261164f565b9150611f798361164f565b9250828203905081811115611f9157611f90611e5d565b5b92915050565b7f476f692063756f63206b6f20746f6e2074616900000000000000000000000000600082015250565b6000611fcd601383611afa565b9150611fd882611f97565b602082019050919050565b60006020820190508181036000830152611ffc81611fc0565b9050919050565b7f476f692063756f63206b6f206f207472616e6720746861692063686f2064757960008201527f6574000000000000000000000000000000000000000000000000000000000000602082015250565b600061205f602283611afa565b915061206a82612003565b604082019050919050565b6000602082019050818103600083015261208e81612052565b9050919050565b7f476f69206b6f2073616e2073616e670000000000000000000000000000000000600082015250565b60006120cb600f83611afa565b91506120d682612095565b602082019050919050565b600060208201905081810360008301526120fa816120be565b9050919050565b7f476f692063756f63206e6179206375612062616e2076616e2064616e6720636f60008201527f6e2068616e2073752064756e6700000000000000000000000000000000000000602082015250565b600061215d602d83611afa565b915061216882612101565b604082019050919050565b6000602082019050818103600083015261218c81612150565b9050919050565b600061219e82611da3565b9050919050565b6121ae81612193565b82525050565b60006060820190506121c96000830186611d4d565b6121d660208301856121a5565b6121e36040830184611a9a565b949350505050565b6121f481611ac4565b81146121ff57600080fd5b50565b600081519050612211816121eb565b92915050565b60006020828403121561222d5761222c6119b9565b5b600061223b84828501612202565b91505092915050565b7f5468616e6820746f616e20746861742062616900000000000000000000000000600082015250565b600061227a601383611afa565b915061228582612244565b602082019050919050565b600060208201905081810360008301526122a98161226d565b9050919050565b60006122bb8261164f565b91506122c68361164f565b92508282019050808211156122de576122dd611e5d565b5b92915050565b7f4769612070686169206c6f6e20686f6e20300000000000000000000000000000600082015250565b600061231a601283611afa565b9150612325826122e4565b602082019050919050565b600060208201905081810360008301526123498161230d565b9050919050565b60008190508160005260206000209050919050565b60006020601f8301049050919050565b600082821b905092915050565b6000600883026123b27fffffffffffffffffffffffffffffffffffffffffffffffffffffffffffffffff82612375565b6123bc8683612375565b95508019841693508086168417925050509392505050565b60006123ef6123ea6123e58461164f565b611d77565b61164f565b9050919050565b6000819050919050565b612409836123d4565b61241d612415826123f6565b848454612382565b825550505050565b600090565b612432612425565b61243d818484612400565b505050565b5b818110156124615761245660008261242a565b600181019050612443565b5050565b601f8211156124a65761247781612350565b61248084612365565b8101602085101561248f578190505b6124a361249b85612365565b830182612442565b50505b505050565b600082821c905092915050565b60006124c9600019846008026124ab565b1980831691505092915050565b60006124e283836124b8565b9150826002028217905092915050565b6124fb82611668565b67ffffffffffffffff81111561251457612513611bc6565b5b61251e8254611f03565b612529828285612465565b600060209050601f83116001811461255c576000841561254a578287015190505b61255485826124d6565b8655506125bc565b601f19841661256a86612350565b60005b828110156125925784890151825560018201915060208501945060208101905061256d565b868310156125af57848901516125ab601f8916826124b8565b8355505b6001600288020188555050505b505050505050565b600060408201905081810360008301526125de8185611b0b565b90506125ed6020830184611a9a565b939250505056fea2646970667358221220dffba37ff4ba97c12db2e860d763f89d9471ff02e2be0dac370499434792edc864736f6c63430008140033",
  "linkReferences": {},
  "deployedLinkReferences": {}
}