{
  "_format": "hh-sol-artifact-1",
  "contractName": "Subscription",
  "sourceName": "contracts/Subscription.sol",
  "abi": [
    {
      "inputs": [
        {
          "internalType": "address",
          "name": "_tokenAddress",
          "type": "address"
        }
      ],
      "stateMutability": "nonpayable",
      "type": "constructor"
    },
    {
      "anonymous": false,
      "inputs": [
        {
          "indexed": true,
          "internalType": "uint256",
          "name": "id",
          "type": "uint256"
        }
      ],
      "name": "PackageApproved",
      "type": "event"
    },
    {
      "anonymous": false,
      "inputs": [
        {
          "indexed": true,
          "internalType": "uint256",
          "name": "id",
          "type": "uint256"
        },
        {
          "indexed": false,
          "internalType": "string",
          "name": "name",
          "type": "string"
        },
        {
          "indexed": false,
          "internalType": "uint256",
          "name": "price",
          "type": "uint256"
        },
        {
          "indexed": true,
          "internalType": "address",
          "name": "seller",
          "type": "address"
        }
      ],
      "name": "PackageCreated",
      "type": "event"
    },
    {
      "anonymous": false,
      "inputs": [
        {
          "indexed": true,
          "internalType": "address",
          "name": "buyer",
          "type": "address"
        },
        {
          "indexed": true,
          "internalType": "uint256",
          "name": "packageId",
          "type": "uint256"
        },
        {
          "indexed": true,
          "internalType": "address",
          "name": "seller",
          "type": "address"
        }
      ],
      "name": "Subscribed",
      "type": "event"
    },
    {
      "inputs": [],
      "name": "admin",
      "outputs": [
        {
          "internalType": "address",
          "name": "",
          "type": "address"
        }
      ],
      "stateMutability": "view",
      "type": "function"
    },
    {
      "inputs": [
        {
          "internalType": "uint256",
          "name": "_packageId",
          "type": "uint256"
        }
      ],
      "name": "approvePackage",
      "outputs": [],
      "stateMutability": "nonpayable",
      "type": "function"
    },
    {
      "inputs": [
        {
          "internalType": "string",
          "name": "_name",
          "type": "string"
        },
        {
          "internalType": "uint256",
          "name": "_price",
          "type": "uint256"
        }
      ],
      "name": "createPackage",
      "outputs": [],
      "stateMutability": "nonpayable",
      "type": "function"
    },
    {
      "inputs": [
        {
          "internalType": "address",
          "name": "",
          "type": "address"
        },
        {
          "internalType": "uint256",
          "name": "",
          "type": "uint256"
        }
      ],
      "name": "expiry",
      "outputs": [
        {
          "internalType": "uint256",
          "name": "",
          "type": "uint256"
        }
      ],
      "stateMutability": "view",
      "type": "function"
    },
    {
      "inputs": [],
      "name": "getActivePackages",
      "outputs": [
        {
          "components": [
            {
              "internalType": "uint256",
              "name": "id",
              "type": "uint256"
            },
            {
              "internalType": "string",
              "name": "name",
              "type": "string"
            },
            {
              "internalType": "uint256",
              "name": "price",
              "type": "uint256"
            },
            {
              "internalType": "address payable",
              "name": "seller",
              "type": "address"
            },
            {
              "internalType": "enum Subscription.PackageStatus",
              "name": "status",
              "type": "uint8"
            }
          ],
          "internalType": "struct Subscription.Package[]",
          "name": "",
          "type": "tuple[]"
        }
      ],
      "stateMutability": "view",
      "type": "function"
    },
    {
      "inputs": [],
      "name": "getPendingPackages",
      "outputs": [
        {
          "components": [
            {
              "internalType": "uint256",
              "name": "id",
              "type": "uint256"
            },
            {
              "internalType": "string",
              "name": "name",
              "type": "string"
            },
            {
              "internalType": "uint256",
              "name": "price",
              "type": "uint256"
            },
            {
              "internalType": "address payable",
              "name": "seller",
              "type": "address"
            },
            {
              "internalType": "enum Subscription.PackageStatus",
              "name": "status",
              "type": "uint8"
            }
          ],
          "internalType": "struct Subscription.Package[]",
          "name": "",
          "type": "tuple[]"
        }
      ],
      "stateMutability": "view",
      "type": "function"
    },
    {
      "inputs": [
        {
          "internalType": "address",
          "name": "",
          "type": "address"
        },
        {
          "internalType": "uint256",
          "name": "",
          "type": "uint256"
        }
      ],
      "name": "hasAccess",
      "outputs": [
        {
          "internalType": "bool",
          "name": "",
          "type": "bool"
        }
      ],
      "stateMutability": "view",
      "type": "function"
    },
    {
      "inputs": [],
      "name": "packageCount",
      "outputs": [
        {
          "internalType": "uint256",
          "name": "",
          "type": "uint256"
        }
      ],
      "stateMutability": "view",
      "type": "function"
    },
    {
      "inputs": [
        {
          "internalType": "uint256",
          "name": "",
          "type": "uint256"
        }
      ],
      "name": "packages",
      "outputs": [
        {
          "internalType": "uint256",
          "name": "id",
          "type": "uint256"
        },
        {
          "internalType": "string",
          "name": "name",
          "type": "string"
        },
        {
          "internalType": "uint256",
          "name": "price",
          "type": "uint256"
        },
        {
          "internalType": "address payable",
          "name": "seller",
          "type": "address"
        },
        {
          "internalType": "enum Subscription.PackageStatus",
          "name": "status",
          "type": "uint8"
        }
      ],
      "stateMutability": "view",
      "type": "function"
    },
    {
      "inputs": [
        {
          "internalType": "uint256",
          "name": "_packageId",
          "type": "uint256"
        }
      ],
      "name": "subscribeToPackage",
      "outputs": [],
      "stateMutability": "nonpayable",
      "type": "function"
    },
    {
      "inputs": [],
      "name": "token",
      "outputs": [
        {
          "internalType": "contract IERC20",
          "name": "",
          "type": "address"
        }
      ],
      "stateMutability": "view",
      "type": "function"
    }
  ],
  "bytecode": "0x60806040523480156200001157600080fd5b506040516200217b3803806200217b833981810160405281019062000037919062000129565b806000806101000a81548173ffffffffffffffffffffffffffffffffffffffff021916908373ffffffffffffffffffffffffffffffffffffffff16021790555033600160006101000a81548173ffffffffffffffffffffffffffffffffffffffff021916908373ffffffffffffffffffffffffffffffffffffffff160217905550506200015b565b600080fd5b600073ffffffffffffffffffffffffffffffffffffffff82169050919050565b6000620000f182620000c4565b9050919050565b6200010381620000e4565b81146200010f57600080fd5b50565b6000815190506200012381620000f8565b92915050565b600060208284031215620001425762000141620000bf565b5b6000620001528482850162000112565b91505092915050565b612010806200016b6000396000f3fe608060405234801561001057600080fd5b50600436106100a95760003560e01c8063c216212a11610071578063c216212a14610152578063c6530e4114610186578063db3364ff146101b6578063ee0ebe0c146101d2578063f851a440146101f0578063fc0c546a1461020e576100a9565b806304b321f1146100ae578063334b3de6146100cc5780637a2a3b5e146100e857806385bedb6414610106578063bd3078bd14610136575b600080fd5b6100b661022c565b6040516100c391906113a7565b60405180910390f35b6100e660048036038101906100e19190611409565b610598565b005b6100f061077a565b6040516100fd91906113a7565b60405180910390f35b610120600480360381019061011b9190611474565b610a56565b60405161012d91906114c3565b60405180910390f35b610150600480360381019061014b9190611409565b610a7b565b005b61016c60048036038101906101679190611409565b610d90565b60405161017d959493929190611546565b60405180910390f35b6101a0600480360381019061019b9190611474565b610e7b565b6040516101ad91906115bb565b60405180910390f35b6101d060048036038101906101cb919061170b565b610eaa565b005b6101da611067565b6040516101e791906114c3565b60405180910390f35b6101f861106d565b6040516102059190611776565b60405180910390f35b610216611093565b60405161022391906117f0565b60405180910390f35b6060600160009054906101000a900473ffffffffffffffffffffffffffffffffffffffff1673ffffffffffffffffffffffffffffffffffffffff163373ffffffffffffffffffffffffffffffffffffffff16146102be576040517f08c379a00000000000000000000000000000000000000000000000000000000081526004016102b590611857565b60405180910390fd5b600080600190505b600354811161034057600060028111156102e3576102e2611224565b5b6002600083815260200190815260200160002060030160149054906101000a900460ff16600281111561031957610318611224565b5b0361032d578180610329906118a6565b9250505b8080610338906118a6565b9150506102c6565b5060008167ffffffffffffffff81111561035d5761035c6115e0565b5b60405190808252806020026020018201604052801561039657816020015b6103836110b7565b81526020019060019003908161037b5790505b509050600080600190505b600354811161058e57600060028111156103be576103bd611224565b5b6002600083815260200190815260200160002060030160149054906101000a900460ff1660028111156103f4576103f3611224565b5b0361057b57600260008281526020019081526020016000206040518060a0016040529081600082015481526020016001820180546104319061191d565b80601f016020809104026020016040519081016040528092919081815260200182805461045d9061191d565b80156104aa5780601f1061047f576101008083540402835291602001916104aa565b820191906000526020600020905b81548152906001019060200180831161048d57829003601f168201915b50505050508152602001600282015481526020016003820160009054906101000a900473ffffffffffffffffffffffffffffffffffffffff1673ffffffffffffffffffffffffffffffffffffffff1673ffffffffffffffffffffffffffffffffffffffff1681526020016003820160149054906101000a900460ff16600281111561053857610537611224565b5b600281111561054a57610549611224565b5b815250508383815181106105615761056061194e565b5b60200260200101819052508180610577906118a6565b9250505b8080610586906118a6565b9150506103a1565b5081935050505090565b600160009054906101000a900473ffffffffffffffffffffffffffffffffffffffff1673ffffffffffffffffffffffffffffffffffffffff163373ffffffffffffffffffffffffffffffffffffffff1614610628576040517f08c379a000000000000000000000000000000000000000000000000000000000815260040161061f90611857565b60405180910390fd5b6000600260008381526020019081526020016000206000015411610681576040517f08c379a0000000000000000000000000000000000000000000000000000000008152600401610678906119c9565b60405180910390fd5b6000600281111561069557610694611224565b5b6002600083815260200190815260200160002060030160149054906101000a900460ff1660028111156106cb576106ca611224565b5b1461070b576040517f08c379a000000000000000000000000000000000000000000000000000000000815260040161070290611a5b565b60405180910390fd5b60016002600083815260200190815260200160002060030160146101000a81548160ff0219169083600281111561074557610744611224565b5b0217905550807fda794dbff2d130a7b36d35c7c6dd1f6e6dd7bc732379dcaa394825fac2f1423260405160405180910390a250565b6060600080600190505b60035481116107fe57600160028111156107a1576107a0611224565b5b6002600083815260200190815260200160002060030160149054906101000a900460ff1660028111156107d7576107d6611224565b5b036107eb5781806107e7906118a6565b9250505b80806107f6906118a6565b915050610784565b5060008167ffffffffffffffff81111561081b5761081a6115e0565b5b60405190808252806020026020018201604052801561085457816020015b6108416110b7565b8152602001906001900390816108395790505b509050600080600190505b6003548111610a4c576001600281111561087c5761087b611224565b5b6002600083815260200190815260200160002060030160149054906101000a900460ff1660028111156108b2576108b1611224565b5b03610a3957600260008281526020019081526020016000206040518060a0016040529081600082015481526020016001820180546108ef9061191d565b80601f016020809104026020016040519081016040528092919081815260200182805461091b9061191d565b80156109685780601f1061093d57610100808354040283529160200191610968565b820191906000526020600020905b81548152906001019060200180831161094b57829003601f168201915b50505050508152602001600282015481526020016003820160009054906101000a900473ffffffffffffffffffffffffffffffffffffffff1673ffffffffffffffffffffffffffffffffffffffff1673ffffffffffffffffffffffffffffffffffffffff1681526020016003820160149054906101000a900460ff1660028111156109f6576109f5611224565b5b6002811115610a0857610a07611224565b5b81525050838381518110610a1f57610a1e61194e565b5b60200260200101819052508180610a35906118a6565b9250505b8080610a44906118a6565b91505061085f565b5081935050505090565b6005602052816000526040600020602052806000526040600020600091509150505481565b600060026000838152602001908152602001600020905060016002811115610aa657610aa5611224565b5b8160030160149054906101000a900460ff166002811115610aca57610ac9611224565b5b14610b0a576040517f08c379a0000000000000000000000000000000000000000000000000000000008152600401610b0190611ac7565b60405180910390fd5b600560003373ffffffffffffffffffffffffffffffffffffffff1673ffffffffffffffffffffffffffffffffffffffff1681526020019081526020016000206000838152602001908152602001600020544211610b9c576040517f08c379a0000000000000000000000000000000000000000000000000000000008152600401610b9390611b59565b60405180910390fd5b60008060009054906101000a900473ffffffffffffffffffffffffffffffffffffffff1673ffffffffffffffffffffffffffffffffffffffff166323b872dd338460030160009054906101000a900473ffffffffffffffffffffffffffffffffffffffff1685600201546040518463ffffffff1660e01b8152600401610c2493929190611b9a565b6020604051808303816000875af1158015610c43573d6000803e3d6000fd5b505050506040513d601f19601f82011682018060405250810190610c679190611bfd565b905080610ca9576040517f08c379a0000000000000000000000000000000000000000000000000000000008152600401610ca090611c76565b60405180910390fd5b62278d0042610cb89190611c96565b600560003373ffffffffffffffffffffffffffffffffffffffff1673ffffffffffffffffffffffffffffffffffffffff1681526020019081526020016000206000858152602001908152602001600020819055508160030160009054906101000a900473ffffffffffffffffffffffffffffffffffffffff1673ffffffffffffffffffffffffffffffffffffffff16833373ffffffffffffffffffffffffffffffffffffffff167ffcd4b73f16a9e7d08085b173590f3eb58682b7c1d92386da34899dd3a2e2bbaf60405160405180910390a4505050565b6002602052806000526040600020600091509050806000015490806001018054610db99061191d565b80601f0160208091040260200160405190810160405280929190818152602001828054610de59061191d565b8015610e325780601f10610e0757610100808354040283529160200191610e32565b820191906000526020600020905b815481529060010190602001808311610e1557829003601f168201915b5050505050908060020154908060030160009054906101000a900473ffffffffffffffffffffffffffffffffffffffff16908060030160149054906101000a900460ff16905085565b60046020528160005260406000206020528060005260406000206000915091509054906101000a900460ff1681565b60008111610eed576040517f08c379a0000000000000000000000000000000000000000000000000000000008152600401610ee490611d16565b60405180910390fd5b60036000815480929190610f00906118a6565b91905055506040518060a0016040528060035481526020018381526020018281526020013373ffffffffffffffffffffffffffffffffffffffff16815260200160006002811115610f5457610f53611224565b5b815250600260006003548152602001908152602001600020600082015181600001556020820151816001019081610f8b9190611ed8565b506040820151816002015560608201518160030160006101000a81548173ffffffffffffffffffffffffffffffffffffffff021916908373ffffffffffffffffffffffffffffffffffffffff16021790555060808201518160030160146101000a81548160ff0219169083600281111561100857611007611224565b5b02179055509050503373ffffffffffffffffffffffffffffffffffffffff166003547fc952ffd27909ed7713eaa3d7255563424d4e89ac7981571f4986a8d2b8e47112848460405161105b929190611faa565b60405180910390a35050565b60035481565b600160009054906101000a900473ffffffffffffffffffffffffffffffffffffffff1681565b60008054906101000a900473ffffffffffffffffffffffffffffffffffffffff1681565b6040518060a00160405280600081526020016060815260200160008152602001600073ffffffffffffffffffffffffffffffffffffffff1681526020016000600281111561110857611107611224565b5b81525090565b600081519050919050565b600082825260208201905092915050565b6000819050602082019050919050565b6000819050919050565b61114d8161113a565b82525050565b600081519050919050565b600082825260208201905092915050565b60005b8381101561118d578082015181840152602081019050611172565b60008484015250505050565b6000601f19601f8301169050919050565b60006111b582611153565b6111bf818561115e565b93506111cf81856020860161116f565b6111d881611199565b840191505092915050565b600073ffffffffffffffffffffffffffffffffffffffff82169050919050565b600061120e826111e3565b9050919050565b61121e81611203565b82525050565b7f4e487b7100000000000000000000000000000000000000000000000000000000600052602160045260246000fd5b6003811061126457611263611224565b5b50565b600081905061127582611253565b919050565b600061128582611267565b9050919050565b6112958161127a565b82525050565b600060a0830160008301516112b36000860182611144565b50602083015184820360208601526112cb82826111aa565b91505060408301516112e06040860182611144565b5060608301516112f36060860182611215565b506080830151611306608086018261128c565b508091505092915050565b600061131d838361129b565b905092915050565b6000602082019050919050565b600061133d8261110e565b6113478185611119565b9350836020820285016113598561112a565b8060005b8581101561139557848403895281516113768582611311565b945061138183611325565b925060208a0199505060018101905061135d565b50829750879550505050505092915050565b600060208201905081810360008301526113c18184611332565b905092915050565b6000604051905090565b600080fd5b600080fd5b6113e68161113a565b81146113f157600080fd5b50565b600081359050611403816113dd565b92915050565b60006020828403121561141f5761141e6113d3565b5b600061142d848285016113f4565b91505092915050565b6000611441826111e3565b9050919050565b61145181611436565b811461145c57600080fd5b50565b60008135905061146e81611448565b92915050565b6000806040838503121561148b5761148a6113d3565b5b60006114998582860161145f565b92505060206114aa858286016113f4565b9150509250929050565b6114bd8161113a565b82525050565b60006020820190506114d860008301846114b4565b92915050565b600082825260208201905092915050565b60006114fa82611153565b61150481856114de565b935061151481856020860161116f565b61151d81611199565b840191505092915050565b61153181611203565b82525050565b6115408161127a565b82525050565b600060a08201905061155b60008301886114b4565b818103602083015261156d81876114ef565b905061157c60408301866114b4565b6115896060830185611528565b6115966080830184611537565b9695505050505050565b60008115159050919050565b6115b5816115a0565b82525050565b60006020820190506115d060008301846115ac565b92915050565b600080fd5b600080fd5b7f4e487b7100000000000000000000000000000000000000000000000000000000600052604160045260246000fd5b61161882611199565b810181811067ffffffffffffffff82111715611637576116366115e0565b5b80604052505050565b600061164a6113c9565b9050611656828261160f565b919050565b600067ffffffffffffffff821115611676576116756115e0565b5b61167f82611199565b9050602081019050919050565b82818337600083830152505050565b60006116ae6116a98461165b565b611640565b9050828152602081018484840111156116ca576116c96115db565b5b6116d584828561168c565b509392505050565b600082601f8301126116f2576116f16115d6565b5b813561170284826020860161169b565b91505092915050565b60008060408385031215611722576117216113d3565b5b600083013567ffffffffffffffff8111156117405761173f6113d8565b5b61174c858286016116dd565b925050602061175d858286016113f4565b9150509250929050565b61177081611436565b82525050565b600060208201905061178b6000830184611767565b92915050565b6000819050919050565b60006117b66117b16117ac846111e3565b611791565b6111e3565b9050919050565b60006117c88261179b565b9050919050565b60006117da826117bd565b9050919050565b6117ea816117cf565b82525050565b600060208201905061180560008301846117e1565b92915050565b7f4368692041646d696e206d6f6920636f20717579656e00000000000000000000600082015250565b60006118416016836114de565b915061184c8261180b565b602082019050919050565b6000602082019050818103600083015261187081611834565b9050919050565b7f4e487b7100000000000000000000000000000000000000000000000000000000600052601160045260246000fd5b60006118b18261113a565b91507fffffffffffffffffffffffffffffffffffffffffffffffffffffffffffffffff82036118e3576118e2611877565b5b600182019050919050565b7f4e487b7100000000000000000000000000000000000000000000000000000000600052602260045260246000fd5b6000600282049050600182168061193557607f821691505b602082108103611948576119476118ee565b5b50919050565b7f4e487b7100000000000000000000000000000000000000000000000000000000600052603260045260246000fd5b7f476f692063756f63206b6f20746f6e2074616900000000000000000000000000600082015250565b60006119b36013836114de565b91506119be8261197d565b602082019050919050565b600060208201905081810360008301526119e2816119a6565b9050919050565b7f476f692063756f63206b6f206f207472616e6720746861692063686f2064757960008201527f6574000000000000000000000000000000000000000000000000000000000000602082015250565b6000611a456022836114de565b9150611a50826119e9565b604082019050919050565b60006020820190508181036000830152611a7481611a38565b9050919050565b7f476f69206b6f2073616e2073616e670000000000000000000000000000000000600082015250565b6000611ab1600f836114de565b9150611abc82611a7b565b602082019050919050565b60006020820190508181036000830152611ae081611aa4565b9050919050565b7f476f692063756f63206e6179206375612062616e2076616e2064616e6720636f60008201527f6e2068616e2073752064756e6700000000000000000000000000000000000000602082015250565b6000611b43602d836114de565b9150611b4e82611ae7565b604082019050919050565b60006020820190508181036000830152611b7281611b36565b9050919050565b6000611b84826117bd565b9050919050565b611b9481611b79565b82525050565b6000606082019050611baf6000830186611767565b611bbc6020830185611b8b565b611bc960408301846114b4565b949350505050565b611bda816115a0565b8114611be557600080fd5b50565b600081519050611bf781611bd1565b92915050565b600060208284031215611c1357611c126113d3565b5b6000611c2184828501611be8565b91505092915050565b7f5468616e6820746f616e20746861742062616900000000000000000000000000600082015250565b6000611c606013836114de565b9150611c6b82611c2a565b602082019050919050565b60006020820190508181036000830152611c8f81611c53565b9050919050565b6000611ca18261113a565b9150611cac8361113a565b9250828201905080821115611cc457611cc3611877565b5b92915050565b7f4769612070686169206c6f6e20686f6e20300000000000000000000000000000600082015250565b6000611d006012836114de565b9150611d0b82611cca565b602082019050919050565b60006020820190508181036000830152611d2f81611cf3565b9050919050565b60008190508160005260206000209050919050565b60006020601f8301049050919050565b600082821b905092915050565b600060088302611d987fffffffffffffffffffffffffffffffffffffffffffffffffffffffffffffffff82611d5b565b611da28683611d5b565b95508019841693508086168417925050509392505050565b6000611dd5611dd0611dcb8461113a565b611791565b61113a565b9050919050565b6000819050919050565b611def83611dba565b611e03611dfb82611ddc565b848454611d68565b825550505050565b600090565b611e18611e0b565b611e23818484611de6565b505050565b5b81811015611e4757611e3c600082611e10565b600181019050611e29565b5050565b601f821115611e8c57611e5d81611d36565b611e6684611d4b565b81016020851015611e75578190505b611e89611e8185611d4b565b830182611e28565b50505b505050565b600082821c905092915050565b6000611eaf60001984600802611e91565b1980831691505092915050565b6000611ec88383611e9e565b9150826002028217905092915050565b611ee182611153565b67ffffffffffffffff811115611efa57611ef96115e0565b5b611f04825461191d565b611f0f828285611e4b565b600060209050601f831160018114611f425760008415611f30578287015190505b611f3a8582611ebc565b865550611fa2565b601f198416611f5086611d36565b60005b82811015611f7857848901518255600182019150602085019450602081019050611f53565b86831015611f955784890151611f91601f891682611e9e565b8355505b6001600288020188555050505b505050505050565b60006040820190508181036000830152611fc481856114ef565b9050611fd360208301846114b4565b939250505056fea26469706673582212205435a37bfcc7f92a2387b5b37ac80bac9422cecf79c5a69ed54bbb78df55a3fb64736f6c63430008140033",
  "linkReferences": {},
  "deployedLinkReferences": {}
}